{
  "contractName": "VoteCommitment",
  "abi": [
    {
      "inputs": [],
      "stateMutability": "nonpayable",
      "type": "constructor"
    },
    {
      "anonymous": false,
      "inputs": [
        {
          "indexed": true,
          "internalType": "bytes32",
          "name": "electionId",
          "type": "bytes32"
        },
        {
          "indexed": true,
          "internalType": "bytes32",
          "name": "userIdHash",
          "type": "bytes32"
        },
        {
          "indexed": false,
          "internalType": "string",
          "name": "reason",
          "type": "string"
        }
      ],
      "name": "DisputeDetected",
      "type": "event"
    },
    {
      "anonymous": false,
      "inputs": [
        {
          "indexed": true,
          "internalType": "bytes32",
          "name": "electionId",
          "type": "bytes32"
        },
        {
          "indexed": true,
          "internalType": "bytes32",
          "name": "userIdHash",
          "type": "bytes32"
        },
        {
          "indexed": false,
          "internalType": "bytes32",
          "name": "commitment",
          "type": "bytes32"
        }
      ],
      "name": "VoteSubmitted",
      "type": "event"
    },
    {
      "inputs": [],
      "name": "admin",
      "outputs": [
        {
          "internalType": "address",
          "name": "",
          "type": "address"
        }
      ],
      "stateMutability": "view",
      "type": "function",
      "constant": true
    },
    {
      "inputs": [
        {
          "internalType": "bytes32",
          "name": "",
          "type": "bytes32"
        },
        {
          "internalType": "bytes32",
          "name": "",
          "type": "bytes32"
        }
      ],
      "name": "commitments",
      "outputs": [
        {
          "internalType": "bytes32",
          "name": "",
          "type": "bytes32"
        }
      ],
      "stateMutability": "view",
      "type": "function",
      "constant": true
    },
    {
      "inputs": [
        {
          "internalType": "bytes32",
          "name": "electionId",
          "type": "bytes32"
        },
        {
          "internalType": "bytes32",
          "name": "userIdHash",
          "type": "bytes32"
        },
        {
          "internalType": "bytes32",
          "name": "commitment",
          "type": "bytes32"
        }
      ],
      "name": "submitVote",
      "outputs": [],
      "stateMutability": "nonpayable",
      "type": "function"
    },
    {
      "inputs": [
        {
          "internalType": "bytes32",
          "name": "electionId",
          "type": "bytes32"
        },
        {
          "internalType": "bytes32",
          "name": "userIdHash",
          "type": "bytes32"
        }
      ],
      "name": "getCommitment",
      "outputs": [
        {
          "internalType": "bytes32",
          "name": "",
          "type": "bytes32"
        }
      ],
      "stateMutability": "view",
      "type": "function",
      "constant": true
    }
  ],
  "bytecode": "0x608060405234801561000f575f80fd5b50335f806101000a81548173ffffffffffffffffffffffffffffffffffffffff021916908373ffffffffffffffffffffffffffffffffffffffff1602179055506104ae8061005c5f395ff3fe608060405234801561000f575f80fd5b506004361061004a575f3560e01c8063491dfc2d1461004e578063c19cc87a1461007e578063e3ea5ba9146100ae578063f851a440146100ca575b5f80fd5b6100686004803603810190610063919061028a565b6100e8565b60405161007591906102d7565b60405180910390f35b6100986004803603810190610093919061028a565b610108565b6040516100a591906102d7565b60405180910390f35b6100c860048036038101906100c391906102f0565b610132565b005b6100d2610230565b6040516100df919061037f565b60405180910390f35b6001602052815f5260405f20602052805f5260405f205f91509150505481565b5f60015f8481526020019081526020015f205f8381526020019081526020015f2054905092915050565b5f801b60015f8581526020019081526020015f205f8481526020019081526020015f2054146101cd5781837f32e1df7c8ae5676f809d1e51513a7d41af3e1771ec1174ace4b119af5049349560405161018a906103f2565b60405180910390a36040517f08c379a00000000000000000000000000000000000000000000000000000000081526004016101c49061045a565b60405180910390fd5b8060015f8581526020019081526020015f205f8481526020019081526020015f208190555081837f178e76faa844f1c429cbe43bb805a70530f990ef2acc87f8f626ac80ff4849098360405161022391906102d7565b60405180910390a3505050565b5f8054906101000a900473ffffffffffffffffffffffffffffffffffffffff1681565b5f80fd5b5f819050919050565b61026981610257565b8114610273575f80fd5b50565b5f8135905061028481610260565b92915050565b5f80604083850312156102a05761029f610253565b5b5f6102ad85828601610276565b92505060206102be85828601610276565b9150509250929050565b6102d181610257565b82525050565b5f6020820190506102ea5f8301846102c8565b92915050565b5f805f6060848603121561030757610306610253565b5b5f61031486828701610276565b935050602061032586828701610276565b925050604061033686828701610276565b9150509250925092565b5f73ffffffffffffffffffffffffffffffffffffffff82169050919050565b5f61036982610340565b9050919050565b6103798161035f565b82525050565b5f6020820190506103925f830184610370565b92915050565b5f82825260208201905092915050565b7f446f75626c6520766f74696e6720617474656d707400000000000000000000005f82015250565b5f6103dc601583610398565b91506103e7826103a8565b602082019050919050565b5f6020820190508181035f830152610409816103d0565b9050919050565b7f416c726561647920766f74656420696e207468697320656c656374696f6e00005f82015250565b5f610444601e83610398565b915061044f82610410565b602082019050919050565b5f6020820190508181035f83015261047181610438565b905091905056fea2646970667358221220db7f6d881f7c396e429fcc34e15cac4b25b94589fe11b83b6356bfb59a1ea33464736f6c63430008150033",
  "immutableReferences": {},
  "source": "// SPDX-License-Identifier: MIT\r\npragma solidity ^0.8.0;\r\n\r\ncontract VoteCommitment {\r\n    address public admin;\r\n\r\n    // electionId => userIdHash => commitment\r\n    mapping(bytes32 => mapping(bytes32 => bytes32)) public commitments;\r\n\r\n    // Events\r\n    event VoteSubmitted(bytes32 indexed electionId, bytes32 indexed userIdHash, bytes32 commitment);\r\n    event DisputeDetected(bytes32 indexed electionId, bytes32 indexed userIdHash, string reason);\r\n\r\n    constructor() {\r\n        admin = msg.sender;\r\n    }\r\n\r\n    function submitVote(bytes32 electionId, bytes32 userIdHash, bytes32 commitment) public {\r\n        // Prevent double voting for the same election\r\n        if (commitments[electionId][userIdHash] != bytes32(0)) {\r\n            emit DisputeDetected(electionId, userIdHash, \"Double voting attempt\");\r\n            revert(\"Already voted in this election\");\r\n        }\r\n\r\n        commitments[electionId][userIdHash] = commitment;\r\n\r\n        emit VoteSubmitted(electionId, userIdHash, commitment);\r\n    }\r\n\r\n    function getCommitment(bytes32 electionId, bytes32 userIdHash) public view returns (bytes32) {\r\n        return commitments[electionId][userIdHash];\r\n    }\r\n}\r\n",
  "sourcePath": "C:\\Users\\91937\\OneDrive\\Desktop\\codeshastra\\Codeshastra-XI-HackNiche\\smart-contracts\\contracts\\VoteCommitment.sol",
  "compiler": {
    "name": "solc",
    "version": "0.8.21+commit.d9974bed.Emscripten.clang"
  },
  "schemaVersion": "3.4.16",
  "updatedAt": "2025-04-06T03:12:11.204Z",
  "networkType": "ethereum",
  "devdoc": {
    "kind": "dev",
    "methods": {},
    "version": 1
  },
  "userdoc": {
    "kind": "user",
    "methods": {},
    "version": 1
  }
}