{
  "contractName": "VoteCommitment",
  "abi": [
    {
      "inputs": [],
      "stateMutability": "nonpayable",
      "type": "constructor"
    },
    {
      "anonymous": false,
      "inputs": [
        {
          "indexed": true,
          "internalType": "bytes32",
          "name": "userIdHash",
          "type": "bytes32"
        },
        {
          "indexed": false,
          "internalType": "bytes32",
          "name": "commitment",
          "type": "bytes32"
        }
      ],
      "name": "VoteSubmitted",
      "type": "event"
    },
    {
      "inputs": [],
      "name": "admin",
      "outputs": [
        {
          "internalType": "address",
          "name": "",
          "type": "address"
        }
      ],
      "stateMutability": "view",
      "type": "function",
      "constant": true
    },
    {
      "inputs": [
        {
          "internalType": "bytes32",
          "name": "",
          "type": "bytes32"
        }
      ],
      "name": "commitments",
      "outputs": [
        {
          "internalType": "bytes32",
          "name": "",
          "type": "bytes32"
        }
      ],
      "stateMutability": "view",
      "type": "function",
      "constant": true
    },
    {
      "inputs": [
        {
          "internalType": "bytes32",
          "name": "userIdHash",
          "type": "bytes32"
        },
        {
          "internalType": "bytes32",
          "name": "commitment",
          "type": "bytes32"
        }
      ],
      "name": "submitVote",
      "outputs": [],
      "stateMutability": "nonpayable",
      "type": "function"
    },
    {
      "inputs": [
        {
          "internalType": "bytes32",
          "name": "userIdHash",
          "type": "bytes32"
        }
      ],
      "name": "getCommitment",
      "outputs": [
        {
          "internalType": "bytes32",
          "name": "",
          "type": "bytes32"
        }
      ],
      "stateMutability": "view",
      "type": "function",
      "constant": true
    }
  ],
  "bytecode": "0x608060405234801561000f575f80fd5b50335f806101000a81548173ffffffffffffffffffffffffffffffffffffffff021916908373ffffffffffffffffffffffffffffffffffffffff1602179055506103d58061005c5f395ff3fe608060405234801561000f575f80fd5b506004361061004a575f3560e01c80630d2ce3761461004e5780637795820c1461006a578063839df9451461009a578063f851a440146100ca575b5f80fd5b61006860048036038101906100639190610218565b6100e8565b005b610084600480360381019061007f9190610256565b61018f565b6040516100919190610290565b60405180910390f35b6100b460048036038101906100af9190610256565b6101a9565b6040516100c19190610290565b60405180910390f35b6100d26101be565b6040516100df91906102e8565b60405180910390f35b5f801b60015f8481526020019081526020015f20541461013d576040517f08c379a000000000000000000000000000000000000000000000000000000000815260040161013490610381565b60405180910390fd5b8060015f8481526020019081526020015f2081905550817f06c0c1cd8918780cb95bb299d5e0219171bc32fc4260f0482974f8c417230011826040516101839190610290565b60405180910390a25050565b5f60015f8381526020019081526020015f20549050919050565b6001602052805f5260405f205f915090505481565b5f8054906101000a900473ffffffffffffffffffffffffffffffffffffffff1681565b5f80fd5b5f819050919050565b6101f7816101e5565b8114610201575f80fd5b50565b5f81359050610212816101ee565b92915050565b5f806040838503121561022e5761022d6101e1565b5b5f61023b85828601610204565b925050602061024c85828601610204565b9150509250929050565b5f6020828403121561026b5761026a6101e1565b5b5f61027884828501610204565b91505092915050565b61028a816101e5565b82525050565b5f6020820190506102a35f830184610281565b92915050565b5f73ffffffffffffffffffffffffffffffffffffffff82169050919050565b5f6102d2826102a9565b9050919050565b6102e2816102c8565b82525050565b5f6020820190506102fb5f8301846102d9565b92915050565b5f82825260208201905092915050565b7f416c726561647920766f7465643a20757365722068617320616c7265616479205f8201527f7375626d6974746564206120766f746500000000000000000000000000000000602082015250565b5f61036b603083610301565b915061037682610311565b604082019050919050565b5f6020820190508181035f8301526103988161035f565b905091905056fea2646970667358221220cfa6e9d07c1520d1babfbb9ed7a8d6affe6df5e0bf6079dd0a3b9a627f9fd7f664736f6c63430008150033",
  "immutableReferences": {},
  "source": "// SPDX-License-Identifier: MIT\r\npragma solidity ^0.8.0;\r\n\r\ncontract VoteCommitment {\r\n    address public admin;\r\n\r\n    mapping(bytes32 => bytes32) public commitments;\r\n\r\n    event VoteSubmitted(bytes32 indexed userIdHash, bytes32 commitment);\r\n\r\n    constructor() {\r\n        admin = msg.sender;\r\n    }\r\n\r\n    function submitVote(bytes32 userIdHash, bytes32 commitment) public {\r\n        require(commitments[userIdHash] == bytes32(0), \"Already voted: user has already submitted a vote\");\r\n        commitments[userIdHash] = commitment;\r\n\r\n        emit VoteSubmitted(userIdHash, commitment);\r\n    }\r\n\r\n    function getCommitment(bytes32 userIdHash) public view returns (bytes32) {\r\n        return commitments[userIdHash];\r\n    }\r\n}\r\n",
  "sourcePath": "C:\\Users\\91937\\OneDrive\\Desktop\\codeshastra\\Codeshastra-XI-HackNiche\\smart-contracts\\contracts\\VoteCommitment.sol",
  "compiler": {
    "name": "solc",
    "version": "0.8.21+commit.d9974bed.Emscripten.clang"
  },
  "schemaVersion": "3.4.16",
  "updatedAt": "2025-04-05T22:59:33.405Z",
  "networkType": "ethereum",
  "devdoc": {
    "kind": "dev",
    "methods": {},
    "version": 1
  },
  "userdoc": {
    "kind": "user",
    "methods": {},
    "version": 1
  }
}