{
  "contractName": "SmartGovernanceVoting",
  "abi": [
    {
      "inputs": [],
      "stateMutability": "nonpayable",
      "type": "constructor"
    },
    {
      "inputs": [],
      "name": "admin",
      "outputs": [
        {
          "internalType": "address",
          "name": "",
          "type": "address"
        }
      ],
      "stateMutability": "view",
      "type": "function"
    },
    {
      "inputs": [
        {
          "internalType": "uint256",
          "name": "",
          "type": "uint256"
        }
      ],
      "name": "disputes",
      "outputs": [
        {
          "internalType": "address",
          "name": "voter",
          "type": "address"
        },
        {
          "internalType": "string",
          "name": "reason",
          "type": "string"
        },
        {
          "internalType": "enum SmartGovernanceVoting.DisputeStatus",
          "name": "status",
          "type": "uint8"
        }
      ],
      "stateMutability": "view",
      "type": "function"
    },
    {
      "inputs": [
        {
          "internalType": "address",
          "name": "",
          "type": "address"
        }
      ],
      "name": "voters",
      "outputs": [
        {
          "internalType": "bool",
          "name": "isRegistered",
          "type": "bool"
        },
        {
          "internalType": "bool",
          "name": "hasVoted",
          "type": "bool"
        },
        {
          "internalType": "bool",
          "name": "verifiedBiometric",
          "type": "bool"
        },
        {
          "internalType": "bool",
          "name": "verifiedSMS",
          "type": "bool"
        },
        {
          "internalType": "bool",
          "name": "verifiedHardware",
          "type": "bool"
        },
        {
          "internalType": "bytes32",
          "name": "ipHash",
          "type": "bytes32"
        },
        {
          "internalType": "bytes32",
          "name": "name",
          "type": "bytes32"
        }
      ],
      "stateMutability": "view",
      "type": "function"
    },
    {
      "inputs": [
        {
          "internalType": "address",
          "name": "_voter",
          "type": "address"
        },
        {
          "internalType": "bytes32",
          "name": "_ipHash",
          "type": "bytes32"
        },
        {
          "internalType": "bytes32",
          "name": "_name",
          "type": "bytes32"
        }
      ],
      "name": "registerVoter",
      "outputs": [],
      "stateMutability": "nonpayable",
      "type": "function"
    },
    {
      "inputs": [
        {
          "internalType": "address",
          "name": "_voter",
          "type": "address"
        }
      ],
      "name": "verifyBiometric",
      "outputs": [],
      "stateMutability": "nonpayable",
      "type": "function"
    },
    {
      "inputs": [
        {
          "internalType": "address",
          "name": "_voter",
          "type": "address"
        }
      ],
      "name": "verifySMS",
      "outputs": [],
      "stateMutability": "nonpayable",
      "type": "function"
    },
    {
      "inputs": [
        {
          "internalType": "address",
          "name": "_voter",
          "type": "address"
        }
      ],
      "name": "verifyHardwareToken",
      "outputs": [],
      "stateMutability": "nonpayable",
      "type": "function"
    },
    {
      "inputs": [
        {
          "internalType": "uint256[]",
          "name": "options",
          "type": "uint256[]"
        }
      ],
      "name": "voteApproval",
      "outputs": [],
      "stateMutability": "nonpayable",
      "type": "function"
    },
    {
      "inputs": [
        {
          "internalType": "uint256[]",
          "name": "rankedOptions",
          "type": "uint256[]"
        }
      ],
      "name": "voteRanked",
      "outputs": [],
      "stateMutability": "nonpayable",
      "type": "function"
    },
    {
      "inputs": [
        {
          "internalType": "uint256[]",
          "name": "options",
          "type": "uint256[]"
        },
        {
          "internalType": "uint256[]",
          "name": "weights",
          "type": "uint256[]"
        }
      ],
      "name": "voteQuadratic",
      "outputs": [],
      "stateMutability": "nonpayable",
      "type": "function"
    },
    {
      "inputs": [
        {
          "internalType": "address",
          "name": "voter",
          "type": "address"
        },
        {
          "internalType": "uint256",
          "name": "option",
          "type": "uint256"
        }
      ],
      "name": "getApprovalVote",
      "outputs": [
        {
          "internalType": "bool",
          "name": "",
          "type": "bool"
        }
      ],
      "stateMutability": "view",
      "type": "function"
    },
    {
      "inputs": [
        {
          "internalType": "address",
          "name": "voter",
          "type": "address"
        },
        {
          "internalType": "uint256",
          "name": "option",
          "type": "uint256"
        }
      ],
      "name": "getQuadraticVote",
      "outputs": [
        {
          "internalType": "uint256",
          "name": "",
          "type": "uint256"
        }
      ],
      "stateMutability": "view",
      "type": "function"
    },
    {
      "inputs": [
        {
          "internalType": "address",
          "name": "voter",
          "type": "address"
        }
      ],
      "name": "getRankedVote",
      "outputs": [
        {
          "internalType": "uint256[]",
          "name": "",
          "type": "uint256[]"
        }
      ],
      "stateMutability": "view",
      "type": "function"
    },
    {
      "inputs": [
        {
          "internalType": "address",
          "name": "voter",
          "type": "address"
        }
      ],
      "name": "getVoterName",
      "outputs": [
        {
          "internalType": "string",
          "name": "",
          "type": "string"
        }
      ],
      "stateMutability": "view",
      "type": "function"
    },
    {
      "inputs": [
        {
          "internalType": "string",
          "name": "reason",
          "type": "string"
        }
      ],
      "name": "raiseDispute",
      "outputs": [],
      "stateMutability": "nonpayable",
      "type": "function"
    },
    {
      "inputs": [
        {
          "internalType": "uint256",
          "name": "disputeIndex",
          "type": "uint256"
        }
      ],
      "name": "resolveDispute",
      "outputs": [],
      "stateMutability": "nonpayable",
      "type": "function"
    },
    {
      "inputs": [
        {
          "internalType": "address",
          "name": "voter",
          "type": "address"
        },
        {
          "internalType": "bytes32",
          "name": "currentIPHash",
          "type": "bytes32"
        }
      ],
      "name": "isAllowedGeoVote",
      "outputs": [
        {
          "internalType": "bool",
          "name": "",
          "type": "bool"
        }
      ],
      "stateMutability": "view",
      "type": "function"
    }
  ],
  "bytecode": "0x608060405234801561000f575f80fd5b50335f806101000a81548173ffffffffffffffffffffffffffffffffffffffff021916908373ffffffffffffffffffffffffffffffffffffffff160217905550612a888061005c5f395ff3fe608060405234801561000f575f80fd5b5060043610610109575f3560e01c80637871848a116100a0578063a3ec138d1161006f578063a3ec138d146102af578063b044b8db146102e5578063c22b6b9d14610315578063c2b7b86814610345578063f851a4401461036157610109565b80637871848a1461023f5780638e3da7e31461025b5780639dcf29ad14610277578063a38da5dc1461029357610109565b80634c21f753116100dc5780634c21f753146101b9578063564a565d146101d55780636787bed014610207578063725a3b4b1461022357610109565b8063248b593d1461010d5780632ce063de1461013d57806330b7558e1461016d5780634ab474bf14610189575b5f80fd5b61012760048036038101906101229190611a70565b61037f565b6040516101349190611b5b565b60405180910390f35b61015760048036038101906101529190611bae565b610414565b6040516101649190611c06565b60405180910390f35b61018760048036038101906101829190611a70565b610460565b005b6101a3600480360381019061019e9190611c49565b610547565b6040516101b09190611c96565b60405180910390f35b6101d360048036038101906101ce9190611a70565b61059d565b005b6101ef60048036038101906101ea9190611caf565b610684565b6040516101fe93929190611de6565b60405180910390f35b610221600480360381019061021c9190611e22565b61076a565b005b61023d60048036038101906102389190611f9e565b6109b3565b005b61025960048036038101906102549190611a70565b610a4b565b005b610275600480360381019061027091906120a9565b610b32565b005b610291600480360381019061028c91906120f0565b610e19565b005b6102ad60048036038101906102a891906120a9565b6111cf565b005b6102c960048036038101906102c49190611a70565b611483565b6040516102dc9796959493929190612175565b60405180910390f35b6102ff60048036038101906102fa9190611c49565b6114fd565b60405161030c9190611c06565b60405180910390f35b61032f600480360381019061032a9190611a70565b61155f565b60405161033c91906121e2565b60405180910390f35b61035f600480360381019061035a9190611caf565b6115cd565b005b610369611785565b6040516103769190612202565b60405180910390f35b606060045f8373ffffffffffffffffffffffffffffffffffffffff1673ffffffffffffffffffffffffffffffffffffffff1681526020019081526020015f205f0180548060200260200160405190810160405280929190818152602001828054801561040857602002820191905f5260205f20905b8154815260200190600101908083116103f4575b50505050509050919050565b5f8160015f8573ffffffffffffffffffffffffffffffffffffffff1673ffffffffffffffffffffffffffffffffffffffff1681526020019081526020015f206001015414905092915050565b5f8054906101000a900473ffffffffffffffffffffffffffffffffffffffff1673ffffffffffffffffffffffffffffffffffffffff163373ffffffffffffffffffffffffffffffffffffffff16146104ed576040517f08c379a00000000000000000000000000000000000000000000000000000000081526004016104e49061228b565b60405180910390fd5b6001805f8373ffffffffffffffffffffffffffffffffffffffff1673ffffffffffffffffffffffffffffffffffffffff1681526020019081526020015f205f0160046101000a81548160ff02191690831515021790555050565b5f60035f8473ffffffffffffffffffffffffffffffffffffffff1673ffffffffffffffffffffffffffffffffffffffff1681526020019081526020015f205f8381526020019081526020015f2054905092915050565b5f8054906101000a900473ffffffffffffffffffffffffffffffffffffffff1673ffffffffffffffffffffffffffffffffffffffff163373ffffffffffffffffffffffffffffffffffffffff161461062a576040517f08c379a00000000000000000000000000000000000000000000000000000000081526004016106219061228b565b60405180910390fd5b6001805f8373ffffffffffffffffffffffffffffffffffffffff1673ffffffffffffffffffffffffffffffffffffffff1681526020019081526020015f205f0160026101000a81548160ff02191690831515021790555050565b60068181548110610693575f80fd5b905f5260205f2090600302015f91509050805f015f9054906101000a900473ffffffffffffffffffffffffffffffffffffffff16908060010180546106d7906122d6565b80601f0160208091040260200160405190810160405280929190818152602001828054610703906122d6565b801561074e5780601f106107255761010080835404028352916020019161074e565b820191905f5260205f20905b81548152906001019060200180831161073157829003601f168201915b505050505090806002015f9054906101000a900460ff16905083565b5f8054906101000a900473ffffffffffffffffffffffffffffffffffffffff1673ffffffffffffffffffffffffffffffffffffffff163373ffffffffffffffffffffffffffffffffffffffff16146107f7576040517f08c379a00000000000000000000000000000000000000000000000000000000081526004016107ee9061228b565b60405180910390fd5b60015f8473ffffffffffffffffffffffffffffffffffffffff1673ffffffffffffffffffffffffffffffffffffffff1681526020019081526020015f205f015f9054906101000a900460ff1615610883576040517f08c379a000000000000000000000000000000000000000000000000000000000815260040161087a90612350565b60405180910390fd5b6040518060e001604052806001151581526020015f151581526020015f151581526020015f151581526020015f151581526020018381526020018281525060015f8573ffffffffffffffffffffffffffffffffffffffff1673ffffffffffffffffffffffffffffffffffffffff1681526020019081526020015f205f820151815f015f6101000a81548160ff0219169083151502179055506020820151815f0160016101000a81548160ff0219169083151502179055506040820151815f0160026101000a81548160ff0219169083151502179055506060820151815f0160036101000a81548160ff0219169083151502179055506080820151815f0160046101000a81548160ff02191690831515021790555060a0820151816001015560c08201518160020155905050505050565b60015f3373ffffffffffffffffffffffffffffffffffffffff1673ffffffffffffffffffffffffffffffffffffffff1681526020019081526020015f205f015f9054906101000a900460ff16610a3e576040517f08c379a0000000000000000000000000000000000000000000000000000000008152600401610a35906123b8565b60405180910390fd5b610a4833826117a8565b50565b5f8054906101000a900473ffffffffffffffffffffffffffffffffffffffff1673ffffffffffffffffffffffffffffffffffffffff163373ffffffffffffffffffffffffffffffffffffffff1614610ad8576040517f08c379a0000000000000000000000000000000000000000000000000000000008152600401610acf9061228b565b60405180910390fd5b6001805f8373ffffffffffffffffffffffffffffffffffffffff1673ffffffffffffffffffffffffffffffffffffffff1681526020019081526020015f205f0160036101000a81548160ff02191690831515021790555050565b335f60015f8373ffffffffffffffffffffffffffffffffffffffff1673ffffffffffffffffffffffffffffffffffffffff1681526020019081526020015f206040518060e00160405290815f82015f9054906101000a900460ff161515151581526020015f820160019054906101000a900460ff161515151581526020015f820160029054906101000a900460ff161515151581526020015f820160039054906101000a900460ff161515151581526020015f820160049054906101000a900460ff1615151515815260200160018201548152602001600282015481525050905080604001518015610c25575080606001515b8015610c32575080608001515b610c9357610c58826040518060600160405280602b8152602001612a28602b91396117a8565b6040517f08c379a0000000000000000000000000000000000000000000000000000000008152600401610c8a90612446565b60405180910390fd5b60015f3373ffffffffffffffffffffffffffffffffffffffff1673ffffffffffffffffffffffffffffffffffffffff1681526020019081526020015f205f0160019054906101000a900460ff1615610d20576040517f08c379a0000000000000000000000000000000000000000000000000000000008152600401610d17906124ae565b60405180910390fd5b5f5b8351811015610dbc57600160025f3373ffffffffffffffffffffffffffffffffffffffff1673ffffffffffffffffffffffffffffffffffffffff1681526020019081526020015f205f868481518110610d7e57610d7d6124cc565b5b602002602001015181526020019081526020015f205f6101000a81548160ff0219169083151502179055508080610db490612526565b915050610d22565b506001805f3373ffffffffffffffffffffffffffffffffffffffff1673ffffffffffffffffffffffffffffffffffffffff1681526020019081526020015f205f0160016101000a81548160ff021916908315150217905550505050565b335f60015f8373ffffffffffffffffffffffffffffffffffffffff1673ffffffffffffffffffffffffffffffffffffffff1681526020019081526020015f206040518060e00160405290815f82015f9054906101000a900460ff161515151581526020015f820160019054906101000a900460ff161515151581526020015f820160029054906101000a900460ff161515151581526020015f820160039054906101000a900460ff161515151581526020015f820160049054906101000a900460ff1615151515815260200160018201548152602001600282015481525050905080604001518015610f0c575080606001515b8015610f19575080608001515b610f7a57610f3f826040518060600160405280602b8152602001612a28602b91396117a8565b6040517f08c379a0000000000000000000000000000000000000000000000000000000008152600401610f7190612446565b60405180910390fd5b60015f3373ffffffffffffffffffffffffffffffffffffffff1673ffffffffffffffffffffffffffffffffffffffff1681526020019081526020015f205f0160019054906101000a900460ff1615611007576040517f08c379a0000000000000000000000000000000000000000000000000000000008152600401610ffe906124ae565b60405180910390fd5b825184511461104b576040517f08c379a0000000000000000000000000000000000000000000000000000000008152600401611042906125b7565b60405180910390fd5b5f5b845181101561117157600a84828151811061106b5761106a6124cc565b5b6020026020010151858381518110611086576110856124cc565b5b602002602001015161109891906125d5565b11156110d9576040517f08c379a00000000000000000000000000000000000000000000000000000000081526004016110d090612660565b60405180910390fd5b8381815181106110ec576110eb6124cc565b5b602002602001015160035f3373ffffffffffffffffffffffffffffffffffffffff1673ffffffffffffffffffffffffffffffffffffffff1681526020019081526020015f205f878481518110611145576111446124cc565b5b602002602001015181526020019081526020015f2081905550808061116990612526565b91505061104d565b506001805f3373ffffffffffffffffffffffffffffffffffffffff1673ffffffffffffffffffffffffffffffffffffffff1681526020019081526020015f205f0160016101000a81548160ff02191690831515021790555050505050565b335f60015f8373ffffffffffffffffffffffffffffffffffffffff1673ffffffffffffffffffffffffffffffffffffffff1681526020019081526020015f206040518060e00160405290815f82015f9054906101000a900460ff161515151581526020015f820160019054906101000a900460ff161515151581526020015f820160029054906101000a900460ff161515151581526020015f820160039054906101000a900460ff161515151581526020015f820160049054906101000a900460ff16151515158152602001600182015481526020016002820154815250509050806040015180156112c2575080606001515b80156112cf575080608001515b611330576112f5826040518060600160405280602b8152602001612a28602b91396117a8565b6040517f08c379a000000000000000000000000000000000000000000000000000000000815260040161132790612446565b60405180910390fd5b60015f3373ffffffffffffffffffffffffffffffffffffffff1673ffffffffffffffffffffffffffffffffffffffff1681526020019081526020015f205f0160019054906101000a900460ff16156113bd576040517f08c379a00000000000000000000000000000000000000000000000000000000081526004016113b4906124ae565b60405180910390fd5b60405180602001604052808481525060045f3373ffffffffffffffffffffffffffffffffffffffff1673ffffffffffffffffffffffffffffffffffffffff1681526020019081526020015f205f820151815f01908051906020019061142392919061199f565b509050506001805f3373ffffffffffffffffffffffffffffffffffffffff1673ffffffffffffffffffffffffffffffffffffffff1681526020019081526020015f205f0160016101000a81548160ff021916908315150217905550505050565b6001602052805f5260405f205f91509050805f015f9054906101000a900460ff1690805f0160019054906101000a900460ff1690805f0160029054906101000a900460ff1690805f0160039054906101000a900460ff1690805f0160049054906101000a900460ff16908060010154908060020154905087565b5f60025f8473ffffffffffffffffffffffffffffffffffffffff1673ffffffffffffffffffffffffffffffffffffffff1681526020019081526020015f205f8381526020019081526020015f205f9054906101000a900460ff16905092915050565b60605f60015f8473ffffffffffffffffffffffffffffffffffffffff1673ffffffffffffffffffffffffffffffffffffffff1681526020019081526020015f20600201549050806040516020016115b6919061269e565b604051602081830303815290604052915050919050565b5f8054906101000a900473ffffffffffffffffffffffffffffffffffffffff1673ffffffffffffffffffffffffffffffffffffffff163373ffffffffffffffffffffffffffffffffffffffff161461165a576040517f08c379a00000000000000000000000000000000000000000000000000000000081526004016116519061228b565b60405180910390fd5b60068054905081106116a1576040517f08c379a000000000000000000000000000000000000000000000000000000000815260040161169890612702565b60405180910390fd5b600160028111156116b5576116b4611d73565b5b600682815481106116c9576116c86124cc565b5b905f5260205f2090600302016002015f9054906101000a900460ff1660028111156116f7576116f6611d73565b5b14611737576040517f08c379a000000000000000000000000000000000000000000000000000000000815260040161172e9061276a565b60405180910390fd5b60026006828154811061174d5761174c6124cc565b5b905f5260205f2090600302016002015f6101000a81548160ff0219169083600281111561177d5761177c611d73565b5b021790555050565b5f8054906101000a900473ffffffffffffffffffffffffffffffffffffffff1681565b5f60068054905011801561184c5750600160028111156117cb576117ca611d73565b5b600660055f8573ffffffffffffffffffffffffffffffffffffffff1673ffffffffffffffffffffffffffffffffffffffff1681526020019081526020015f20548154811061181c5761181b6124cc565b5b905f5260205f2090600302016002015f9054906101000a900460ff16600281111561184a57611849611d73565b5b145b61199b57600660405180606001604052808473ffffffffffffffffffffffffffffffffffffffff1681526020018381526020016001600281111561189357611892611d73565b5b815250908060018154018082558091505060019003905f5260205f2090600302015f909190919091505f820151815f015f6101000a81548173ffffffffffffffffffffffffffffffffffffffff021916908373ffffffffffffffffffffffffffffffffffffffff16021790555060208201518160010190816119159190612925565b506040820151816002015f6101000a81548160ff021916908360028111156119405761193f611d73565b5b02179055505050600160068054905061195991906129f4565b60055f8473ffffffffffffffffffffffffffffffffffffffff1673ffffffffffffffffffffffffffffffffffffffff1681526020019081526020015f20819055505b5050565b828054828255905f5260205f209081019282156119d9579160200282015b828111156119d85782518255916020019190600101906119bd565b5b5090506119e691906119ea565b5090565b5b80821115611a01575f815f9055506001016119eb565b5090565b5f604051905090565b5f80fd5b5f80fd5b5f73ffffffffffffffffffffffffffffffffffffffff82169050919050565b5f611a3f82611a16565b9050919050565b611a4f81611a35565b8114611a59575f80fd5b50565b5f81359050611a6a81611a46565b92915050565b5f60208284031215611a8557611a84611a0e565b5b5f611a9284828501611a5c565b91505092915050565b5f81519050919050565b5f82825260208201905092915050565b5f819050602082019050919050565b5f819050919050565b611ad681611ac4565b82525050565b5f611ae78383611acd565b60208301905092915050565b5f602082019050919050565b5f611b0982611a9b565b611b138185611aa5565b9350611b1e83611ab5565b805f5b83811015611b4e578151611b358882611adc565b9750611b4083611af3565b925050600181019050611b21565b5085935050505092915050565b5f6020820190508181035f830152611b738184611aff565b905092915050565b5f819050919050565b611b8d81611b7b565b8114611b97575f80fd5b50565b5f81359050611ba881611b84565b92915050565b5f8060408385031215611bc457611bc3611a0e565b5b5f611bd185828601611a5c565b9250506020611be285828601611b9a565b9150509250929050565b5f8115159050919050565b611c0081611bec565b82525050565b5f602082019050611c195f830184611bf7565b92915050565b611c2881611ac4565b8114611c32575f80fd5b50565b5f81359050611c4381611c1f565b92915050565b5f8060408385031215611c5f57611c5e611a0e565b5b5f611c6c85828601611a5c565b9250506020611c7d85828601611c35565b9150509250929050565b611c9081611ac4565b82525050565b5f602082019050611ca95f830184611c87565b92915050565b5f60208284031215611cc457611cc3611a0e565b5b5f611cd184828501611c35565b91505092915050565b611ce381611a35565b82525050565b5f81519050919050565b5f82825260208201905092915050565b5f5b83811015611d20578082015181840152602081019050611d05565b5f8484015250505050565b5f601f19601f8301169050919050565b5f611d4582611ce9565b611d4f8185611cf3565b9350611d5f818560208601611d03565b611d6881611d2b565b840191505092915050565b7f4e487b71000000000000000000000000000000000000000000000000000000005f52602160045260245ffd5b60038110611db157611db0611d73565b5b50565b5f819050611dc182611da0565b919050565b5f611dd082611db4565b9050919050565b611de081611dc6565b82525050565b5f606082019050611df95f830186611cda565b8181036020830152611e0b8185611d3b565b9050611e1a6040830184611dd7565b949350505050565b5f805f60608486031215611e3957611e38611a0e565b5b5f611e4686828701611a5c565b9350506020611e5786828701611b9a565b9250506040611e6886828701611b9a565b9150509250925092565b5f80fd5b5f80fd5b7f4e487b71000000000000000000000000000000000000000000000000000000005f52604160045260245ffd5b611eb082611d2b565b810181811067ffffffffffffffff82111715611ecf57611ece611e7a565b5b80604052505050565b5f611ee1611a05565b9050611eed8282611ea7565b919050565b5f67ffffffffffffffff821115611f0c57611f0b611e7a565b5b611f1582611d2b565b9050602081019050919050565b828183375f83830152505050565b5f611f42611f3d84611ef2565b611ed8565b905082815260208101848484011115611f5e57611f5d611e76565b5b611f69848285611f22565b509392505050565b5f82601f830112611f8557611f84611e72565b5b8135611f95848260208601611f30565b91505092915050565b5f60208284031215611fb357611fb2611a0e565b5b5f82013567ffffffffffffffff811115611fd057611fcf611a12565b5b611fdc84828501611f71565b91505092915050565b5f67ffffffffffffffff821115611fff57611ffe611e7a565b5b602082029050602081019050919050565b5f80fd5b5f61202661202184611fe5565b611ed8565b9050808382526020820190506020840283018581111561204957612048612010565b5b835b81811015612072578061205e8882611c35565b84526020840193505060208101905061204b565b5050509392505050565b5f82601f8301126120905761208f611e72565b5b81356120a0848260208601612014565b91505092915050565b5f602082840312156120be576120bd611a0e565b5b5f82013567ffffffffffffffff8111156120db576120da611a12565b5b6120e78482850161207c565b91505092915050565b5f806040838503121561210657612105611a0e565b5b5f83013567ffffffffffffffff81111561212357612122611a12565b5b61212f8582860161207c565b925050602083013567ffffffffffffffff8111156121505761214f611a12565b5b61215c8582860161207c565b9150509250929050565b61216f81611b7b565b82525050565b5f60e0820190506121885f83018a611bf7565b6121956020830189611bf7565b6121a26040830188611bf7565b6121af6060830187611bf7565b6121bc6080830186611bf7565b6121c960a0830185612166565b6121d660c0830184612166565b98975050505050505050565b5f6020820190508181035f8301526121fa8184611d3b565b905092915050565b5f6020820190506122155f830184611cda565b92915050565b7f4f6e6c792061646d696e2063616e20706572666f726d207468697320616374695f8201527f6f6e000000000000000000000000000000000000000000000000000000000000602082015250565b5f612275602283611cf3565b91506122808261221b565b604082019050919050565b5f6020820190508181035f8301526122a281612269565b9050919050565b7f4e487b71000000000000000000000000000000000000000000000000000000005f52602260045260245ffd5b5f60028204905060018216806122ed57607f821691505b602082108103612300576122ff6122a9565b5b50919050565b7f566f74657220697320616c7265616479207265676973746572656400000000005f82015250565b5f61233a601b83611cf3565b915061234582612306565b602082019050919050565b5f6020820190508181035f8301526123678161232e565b9050919050565b7f4e6f742061207265676973746572656420766f746572000000000000000000005f82015250565b5f6123a2601683611cf3565b91506123ad8261236e565b602082019050919050565b5f6020820190508181035f8301526123cf81612396565b9050919050565b7f566f746572206e6f742066756c6c792076657269666965642e204469737075745f8201527f6520686173206265656e207261697365642e0000000000000000000000000000602082015250565b5f612430603283611cf3565b915061243b826123d6565b604082019050919050565b5f6020820190508181035f83015261245d81612424565b9050919050565b7f596f75206861766520616c726561647920766f746564000000000000000000005f82015250565b5f612498601683611cf3565b91506124a382612464565b602082019050919050565b5f6020820190508181035f8301526124c58161248c565b9050919050565b7f4e487b71000000000000000000000000000000000000000000000000000000005f52603260045260245ffd5b7f4e487b71000000000000000000000000000000000000000000000000000000005f52601160045260245ffd5b5f61253082611ac4565b91507fffffffffffffffffffffffffffffffffffffffffffffffffffffffffffffffff8203612562576125616124f9565b5b600182019050919050565b7f4d69736d61746368656420696e707574730000000000000000000000000000005f82015250565b5f6125a1601183611cf3565b91506125ac8261256d565b602082019050919050565b5f6020820190508181035f8301526125ce81612595565b9050919050565b5f6125df82611ac4565b91506125ea83611ac4565b92508282026125f881611ac4565b9150828204841483151761260f5761260e6124f9565b5b5092915050565b7f45786365656465642071756164726174696320627564676574000000000000005f82015250565b5f61264a601983611cf3565b915061265582612616565b602082019050919050565b5f6020820190508181035f8301526126778161263e565b9050919050565b5f819050919050565b61269861269382611b7b565b61267e565b82525050565b5f6126a98284612687565b60208201915081905092915050565b7f496e76616c6964206469737075746520696e64657800000000000000000000005f82015250565b5f6126ec601583611cf3565b91506126f7826126b8565b602082019050919050565b5f6020820190508181035f830152612719816126e0565b9050919050565b7f44697370757465206e6f742072616973656400000000000000000000000000005f82015250565b5f612754601283611cf3565b915061275f82612720565b602082019050919050565b5f6020820190508181035f83015261278181612748565b9050919050565b5f819050815f5260205f209050919050565b5f6020601f8301049050919050565b5f82821b905092915050565b5f600883026127e47fffffffffffffffffffffffffffffffffffffffffffffffffffffffffffffffff826127a9565b6127ee86836127a9565b95508019841693508086168417925050509392505050565b5f819050919050565b5f61282961282461281f84611ac4565b612806565b611ac4565b9050919050565b5f819050919050565b6128428361280f565b61285661284e82612830565b8484546127b5565b825550505050565b5f90565b61286a61285e565b612875818484612839565b505050565b5b818110156128985761288d5f82612862565b60018101905061287b565b5050565b601f8211156128dd576128ae81612788565b6128b78461279a565b810160208510156128c6578190505b6128da6128d28561279a565b83018261287a565b50505b505050565b5f82821c905092915050565b5f6128fd5f19846008026128e2565b1980831691505092915050565b5f61291583836128ee565b9150826002028217905092915050565b61292e82611ce9565b67ffffffffffffffff81111561294757612946611e7a565b5b61295182546122d6565b61295c82828561289c565b5f60209050601f83116001811461298d575f841561297b578287015190505b612985858261290a565b8655506129ec565b601f19841661299b86612788565b5f5b828110156129c25784890151825560018201915060208501945060208101905061299d565b868310156129df57848901516129db601f8916826128ee565b8355505b6001600288020188555050505b505050505050565b5f6129fe82611ac4565b9150612a0983611ac4565b9250828203905081811115612a2157612a206124f9565b5b9291505056fe417474656d7074656420746f20766f746520776974686f75742066756c6c20766572696669636174696f6ea26469706673582212208366b9875b690cb298a17ee5f2d54b5c2487aa6185b7697311ef9d548b18694664736f6c63430008150033",
  "immutableReferences": {},
  "source": "// SPDX-License-Identifier: MIT\r\npragma solidity ^0.8.0;\r\n\r\ncontract SmartGovernanceVoting {\r\n    address public admin;\r\n\r\n    constructor() {\r\n        admin = msg.sender;\r\n    }\r\n\r\n    enum VoteType { Approval, Ranked, Quadratic }\r\n    enum DisputeStatus { None, Raised, Resolved }\r\n\r\n    struct Voter {\r\n        bool isRegistered;\r\n        bool hasVoted;\r\n        bool verifiedBiometric;\r\n        bool verifiedSMS;\r\n        bool verifiedHardware;\r\n        bytes32 ipHash;\r\n        bytes32 name;\r\n    }\r\n\r\n    struct RankedVote {\r\n        uint[] rankedOptions;\r\n    }\r\n\r\n    struct Dispute {\r\n        address voter;\r\n        string reason;\r\n        DisputeStatus status;\r\n    }\r\n\r\n    mapping(address => Voter) public voters;\r\n    mapping(address => mapping(uint => bool)) private approvalVotes;\r\n    mapping(address => mapping(uint => uint)) private quadraticVotes;\r\n    mapping(address => RankedVote) private rankedVotes;\r\n\r\n    mapping(address => uint) private activeDisputeIndex;\r\n    Dispute[] public disputes;\r\n\r\n    modifier onlyAdmin() {\r\n        require(msg.sender == admin, \"Only admin can perform this action\");\r\n        _;\r\n    }\r\n\r\n    modifier onlyVerified(address _voter) {\r\n        Voter memory v = voters[_voter];\r\n        if (!(v.verifiedBiometric && v.verifiedSMS && v.verifiedHardware)) {\r\n            _autoRaiseDispute(_voter, \"Attempted to vote without full verification\");\r\n            revert(\"Voter not fully verified. Dispute has been raised.\");\r\n        }\r\n        _;\r\n    }\r\n\r\n    function registerVoter(address _voter, bytes32 _ipHash, bytes32 _name) public onlyAdmin {\r\n        require(!voters[_voter].isRegistered, \"Voter is already registered\");\r\n        voters[_voter] = Voter(true, false, false, false, false, _ipHash, _name);\r\n    }\r\n\r\n    function verifyBiometric(address _voter) public onlyAdmin {\r\n        voters[_voter].verifiedBiometric = true;\r\n    }\r\n\r\n    function verifySMS(address _voter) public onlyAdmin {\r\n        voters[_voter].verifiedSMS = true;\r\n    }\r\n\r\n    function verifyHardwareToken(address _voter) public onlyAdmin {\r\n        voters[_voter].verifiedHardware = true;\r\n    }\r\n\r\n    function voteApproval(uint[] memory options) public onlyVerified(msg.sender) {\r\n        require(!voters[msg.sender].hasVoted, \"You have already voted\");\r\n        for (uint i = 0; i < options.length; i++) {\r\n            approvalVotes[msg.sender][options[i]] = true;\r\n        }\r\n        voters[msg.sender].hasVoted = true;\r\n    }\r\n\r\n    function voteRanked(uint[] memory rankedOptions) public onlyVerified(msg.sender) {\r\n        require(!voters[msg.sender].hasVoted, \"You have already voted\");\r\n        rankedVotes[msg.sender] = RankedVote(rankedOptions);\r\n        voters[msg.sender].hasVoted = true;\r\n    }\r\n\r\n    function voteQuadratic(uint[] memory options, uint[] memory weights) public onlyVerified(msg.sender) {\r\n        require(!voters[msg.sender].hasVoted, \"You have already voted\");\r\n        require(options.length == weights.length, \"Mismatched inputs\");\r\n\r\n        for (uint i = 0; i < options.length; i++) {\r\n            require(weights[i] * weights[i] <= 10, \"Exceeded quadratic budget\");\r\n            quadraticVotes[msg.sender][options[i]] = weights[i];\r\n        }\r\n        voters[msg.sender].hasVoted = true;\r\n    }\r\n\r\n    function getApprovalVote(address voter, uint option) public view returns (bool) {\r\n        return approvalVotes[voter][option];\r\n    }\r\n\r\n    function getQuadraticVote(address voter, uint option) public view returns (uint) {\r\n        return quadraticVotes[voter][option];\r\n    }\r\n\r\n    function getRankedVote(address voter) public view returns (uint[] memory) {\r\n        return rankedVotes[voter].rankedOptions;\r\n    }\r\n\r\n    function getVoterName(address voter) public view returns (string memory) {\r\n        bytes32 nameBytes = voters[voter].name;\r\n        return string(abi.encodePacked(nameBytes));\r\n    }\r\n\r\n    function raiseDispute(string memory reason) public {\r\n        require(voters[msg.sender].isRegistered, \"Not a registered voter\");\r\n        _autoRaiseDispute(msg.sender, reason);\r\n    }\r\n\r\n    function resolveDispute(uint disputeIndex) public onlyAdmin {\r\n        require(disputeIndex < disputes.length, \"Invalid dispute index\");\r\n        require(disputes[disputeIndex].status == DisputeStatus.Raised, \"Dispute not raised\");\r\n        disputes[disputeIndex].status = DisputeStatus.Resolved;\r\n    }\r\n\r\n    function _autoRaiseDispute(address voter, string memory reason) internal {\r\n        if (disputes.length > 0 && disputes[activeDisputeIndex[voter]].status == DisputeStatus.Raised) {\r\n            return; // Already has a raised dispute\r\n        }\r\n\r\n        disputes.push(Dispute({\r\n            voter: voter,\r\n            reason: reason,\r\n            status: DisputeStatus.Raised\r\n        }));\r\n        activeDisputeIndex[voter] = disputes.length - 1;\r\n    }\r\n\r\n    function isAllowedGeoVote(address voter, bytes32 currentIPHash) public view returns (bool) {\r\n        return voters[voter].ipHash == currentIPHash;\r\n    }\r\n}\r\n",
  "sourcePath": "C:\\Users\\91937\\OneDrive\\Desktop\\codeshastra\\Codeshastra-XI-HackNiche\\contracts\\SmartGovernanceVoting.sol",
  "compiler": {
    "name": "solc",
    "version": "0.8.21+commit.d9974bed.Emscripten.clang"
  },
  "schemaVersion": "3.4.16",
  "updatedAt": "2025-04-05T23:52:23.968Z",
  "devdoc": {
    "kind": "dev",
    "methods": {},
    "version": 1
  },
  "userdoc": {
    "kind": "user",
    "methods": {},
    "version": 1
  }
}