{
  "contractName": "SmartGovernanceVoting",
  "abi": [
    {
      "inputs": [],
      "stateMutability": "nonpayable",
      "type": "constructor"
    },
    {
      "inputs": [],
      "name": "admin",
      "outputs": [
        {
          "internalType": "address",
          "name": "",
          "type": "address"
        }
      ],
      "stateMutability": "view",
      "type": "function",
      "constant": true
    },
    {
      "inputs": [
        {
          "internalType": "uint256",
          "name": "",
          "type": "uint256"
        }
      ],
      "name": "disputes",
      "outputs": [
        {
          "internalType": "address",
          "name": "voter",
          "type": "address"
        },
        {
          "internalType": "string",
          "name": "reason",
          "type": "string"
        },
        {
          "internalType": "enum SmartGovernanceVoting.DisputeStatus",
          "name": "status",
          "type": "uint8"
        }
      ],
      "stateMutability": "view",
      "type": "function",
      "constant": true
    },
    {
      "inputs": [
        {
          "internalType": "address",
          "name": "",
          "type": "address"
        }
      ],
      "name": "voters",
      "outputs": [
        {
          "internalType": "bool",
          "name": "isRegistered",
          "type": "bool"
        },
        {
          "internalType": "bool",
          "name": "hasVoted",
          "type": "bool"
        },
        {
          "internalType": "bool",
          "name": "verifiedBiometric",
          "type": "bool"
        },
        {
          "internalType": "bool",
          "name": "verifiedSMS",
          "type": "bool"
        },
        {
          "internalType": "bool",
          "name": "verifiedHardware",
          "type": "bool"
        },
        {
          "internalType": "bytes32",
          "name": "ipHash",
          "type": "bytes32"
        },
        {
          "internalType": "bytes32",
          "name": "name",
          "type": "bytes32"
        }
      ],
      "stateMutability": "view",
      "type": "function",
      "constant": true
    },
    {
      "inputs": [
        {
          "internalType": "address",
          "name": "_voter",
          "type": "address"
        },
        {
          "internalType": "bytes32",
          "name": "_ipHash",
          "type": "bytes32"
        },
        {
          "internalType": "bytes32",
          "name": "_name",
          "type": "bytes32"
        }
      ],
      "name": "registerVoter",
      "outputs": [],
      "stateMutability": "nonpayable",
      "type": "function"
    },
    {
      "inputs": [
        {
          "internalType": "address",
          "name": "_voter",
          "type": "address"
        }
      ],
      "name": "verifyBiometric",
      "outputs": [],
      "stateMutability": "nonpayable",
      "type": "function"
    },
    {
      "inputs": [
        {
          "internalType": "address",
          "name": "_voter",
          "type": "address"
        }
      ],
      "name": "verifySMS",
      "outputs": [],
      "stateMutability": "nonpayable",
      "type": "function"
    },
    {
      "inputs": [
        {
          "internalType": "address",
          "name": "_voter",
          "type": "address"
        }
      ],
      "name": "verifyHardwareToken",
      "outputs": [],
      "stateMutability": "nonpayable",
      "type": "function"
    },
    {
      "inputs": [
        {
          "internalType": "uint256[]",
          "name": "options",
          "type": "uint256[]"
        }
      ],
      "name": "voteApproval",
      "outputs": [],
      "stateMutability": "nonpayable",
      "type": "function"
    },
    {
      "inputs": [
        {
          "internalType": "uint256[]",
          "name": "rankedOptions",
          "type": "uint256[]"
        }
      ],
      "name": "voteRanked",
      "outputs": [],
      "stateMutability": "nonpayable",
      "type": "function"
    },
    {
      "inputs": [
        {
          "internalType": "uint256[]",
          "name": "options",
          "type": "uint256[]"
        },
        {
          "internalType": "uint256[]",
          "name": "weights",
          "type": "uint256[]"
        }
      ],
      "name": "voteQuadratic",
      "outputs": [],
      "stateMutability": "nonpayable",
      "type": "function"
    },
    {
      "inputs": [
        {
          "internalType": "address",
          "name": "voter",
          "type": "address"
        },
        {
          "internalType": "uint256",
          "name": "option",
          "type": "uint256"
        }
      ],
      "name": "getApprovalVote",
      "outputs": [
        {
          "internalType": "bool",
          "name": "",
          "type": "bool"
        }
      ],
      "stateMutability": "view",
      "type": "function",
      "constant": true
    },
    {
      "inputs": [
        {
          "internalType": "address",
          "name": "voter",
          "type": "address"
        },
        {
          "internalType": "uint256",
          "name": "option",
          "type": "uint256"
        }
      ],
      "name": "getQuadraticVote",
      "outputs": [
        {
          "internalType": "uint256",
          "name": "",
          "type": "uint256"
        }
      ],
      "stateMutability": "view",
      "type": "function",
      "constant": true
    },
    {
      "inputs": [
        {
          "internalType": "address",
          "name": "voter",
          "type": "address"
        }
      ],
      "name": "getRankedVote",
      "outputs": [
        {
          "internalType": "uint256[]",
          "name": "",
          "type": "uint256[]"
        }
      ],
      "stateMutability": "view",
      "type": "function",
      "constant": true
    },
    {
      "inputs": [
        {
          "internalType": "address",
          "name": "voter",
          "type": "address"
        }
      ],
      "name": "getVoterName",
      "outputs": [
        {
          "internalType": "string",
          "name": "",
          "type": "string"
        }
      ],
      "stateMutability": "view",
      "type": "function",
      "constant": true
    },
    {
      "inputs": [
        {
          "internalType": "string",
          "name": "reason",
          "type": "string"
        }
      ],
      "name": "raiseDispute",
      "outputs": [],
      "stateMutability": "nonpayable",
      "type": "function"
    },
    {
      "inputs": [
        {
          "internalType": "uint256",
          "name": "disputeIndex",
          "type": "uint256"
        }
      ],
      "name": "resolveDispute",
      "outputs": [],
      "stateMutability": "nonpayable",
      "type": "function"
    },
    {
      "inputs": [
        {
          "internalType": "address",
          "name": "voter",
          "type": "address"
        },
        {
          "internalType": "bytes32",
          "name": "currentIPHash",
          "type": "bytes32"
        }
      ],
      "name": "isAllowedGeoVote",
      "outputs": [
        {
          "internalType": "bool",
          "name": "",
          "type": "bool"
        }
      ],
      "stateMutability": "view",
      "type": "function",
      "constant": true
    }
  ],
  "bytecode": "0x608060405234801561000f575f80fd5b50335f806101000a81548173ffffffffffffffffffffffffffffffffffffffff021916908373ffffffffffffffffffffffffffffffffffffffff1602179055506127758061005c5f395ff3fe608060405234801561000f575f80fd5b5060043610610109575f3560e01c80637871848a116100a0578063a3ec138d1161006f578063a3ec138d146102af578063b044b8db146102e5578063c22b6b9d14610315578063c2b7b86814610345578063f851a4401461036157610109565b80637871848a1461023f5780638e3da7e31461025b5780639dcf29ad14610277578063a38da5dc1461029357610109565b80634c21f753116100dc5780634c21f753146101b9578063564a565d146101d55780636787bed014610207578063725a3b4b1461022357610109565b8063248b593d1461010d5780632ce063de1461013d57806330b7558e1461016d5780634ab474bf14610189575b5f80fd5b6101276004803603810190610122919061186f565b61037f565b604051610134919061195a565b60405180910390f35b610157600480360381019061015291906119ad565b610414565b6040516101649190611a05565b60405180910390f35b6101876004803603810190610182919061186f565b610460565b005b6101a3600480360381019061019e9190611a48565b610547565b6040516101b09190611a95565b60405180910390f35b6101d360048036038101906101ce919061186f565b61059d565b005b6101ef60048036038101906101ea9190611aae565b610684565b6040516101fe93929190611be5565b60405180910390f35b610221600480360381019061021c9190611c21565b61076a565b005b61023d60048036038101906102389190611d9d565b610927565b005b6102596004803603810190610254919061186f565b610aac565b005b61027560048036038101906102709190611ea8565b610b93565b005b610291600480360381019061028c9190611eef565b610e58565b005b6102ad60048036038101906102a89190611ea8565b6111ec565b005b6102c960048036038101906102c4919061186f565b61147e565b6040516102dc9796959493929190611f74565b60405180910390f35b6102ff60048036038101906102fa9190611a48565b6114f8565b60405161030c9190611a05565b60405180910390f35b61032f600480360381019061032a919061186f565b61155a565b60405161033c9190611fe1565b60405180910390f35b61035f600480360381019061035a9190611aae565b6115c3565b005b61036961177b565b6040516103769190612001565b60405180910390f35b606060045f8373ffffffffffffffffffffffffffffffffffffffff1673ffffffffffffffffffffffffffffffffffffffff1681526020019081526020015f205f0180548060200260200160405190810160405280929190818152602001828054801561040857602002820191905f5260205f20905b8154815260200190600101908083116103f4575b50505050509050919050565b5f8160015f8573ffffffffffffffffffffffffffffffffffffffff1673ffffffffffffffffffffffffffffffffffffffff1681526020019081526020015f206001015414905092915050565b5f8054906101000a900473ffffffffffffffffffffffffffffffffffffffff1673ffffffffffffffffffffffffffffffffffffffff163373ffffffffffffffffffffffffffffffffffffffff16146104ed576040517f08c379a00000000000000000000000000000000000000000000000000000000081526004016104e490612064565b60405180910390fd5b6001805f8373ffffffffffffffffffffffffffffffffffffffff1673ffffffffffffffffffffffffffffffffffffffff1681526020019081526020015f205f0160046101000a81548160ff02191690831515021790555050565b5f60035f8473ffffffffffffffffffffffffffffffffffffffff1673ffffffffffffffffffffffffffffffffffffffff1681526020019081526020015f205f8381526020019081526020015f2054905092915050565b5f8054906101000a900473ffffffffffffffffffffffffffffffffffffffff1673ffffffffffffffffffffffffffffffffffffffff163373ffffffffffffffffffffffffffffffffffffffff161461062a576040517f08c379a000000000000000000000000000000000000000000000000000000000815260040161062190612064565b60405180910390fd5b6001805f8373ffffffffffffffffffffffffffffffffffffffff1673ffffffffffffffffffffffffffffffffffffffff1681526020019081526020015f205f0160026101000a81548160ff02191690831515021790555050565b60058181548110610693575f80fd5b905f5260205f2090600302015f91509050805f015f9054906101000a900473ffffffffffffffffffffffffffffffffffffffff16908060010180546106d7906120af565b80601f0160208091040260200160405190810160405280929190818152602001828054610703906120af565b801561074e5780601f106107255761010080835404028352916020019161074e565b820191905f5260205f20905b81548152906001019060200180831161073157829003601f168201915b505050505090806002015f9054906101000a900460ff16905083565b5f8054906101000a900473ffffffffffffffffffffffffffffffffffffffff1673ffffffffffffffffffffffffffffffffffffffff163373ffffffffffffffffffffffffffffffffffffffff16146107f7576040517f08c379a00000000000000000000000000000000000000000000000000000000081526004016107ee90612064565b60405180910390fd5b6040518060e001604052806001151581526020015f151581526020015f151581526020015f151581526020015f151581526020018381526020018281525060015f8573ffffffffffffffffffffffffffffffffffffffff1673ffffffffffffffffffffffffffffffffffffffff1681526020019081526020015f205f820151815f015f6101000a81548160ff0219169083151502179055506020820151815f0160016101000a81548160ff0219169083151502179055506040820151815f0160026101000a81548160ff0219169083151502179055506060820151815f0160036101000a81548160ff0219169083151502179055506080820151815f0160046101000a81548160ff02191690831515021790555060a0820151816001015560c08201518160020155905050505050565b60015f3373ffffffffffffffffffffffffffffffffffffffff1673ffffffffffffffffffffffffffffffffffffffff1681526020019081526020015f205f015f9054906101000a900460ff166109b2576040517f08c379a00000000000000000000000000000000000000000000000000000000081526004016109a990612129565b60405180910390fd5b600560405180606001604052803373ffffffffffffffffffffffffffffffffffffffff168152602001838152602001600160028111156109f5576109f4611b72565b5b815250908060018154018082558091505060019003905f5260205f2090600302015f909190919091505f820151815f015f6101000a81548173ffffffffffffffffffffffffffffffffffffffff021916908373ffffffffffffffffffffffffffffffffffffffff1602179055506020820151816001019081610a7791906122e4565b506040820151816002015f6101000a81548160ff02191690836002811115610aa257610aa1611b72565b5b0217905550505050565b5f8054906101000a900473ffffffffffffffffffffffffffffffffffffffff1673ffffffffffffffffffffffffffffffffffffffff163373ffffffffffffffffffffffffffffffffffffffff1614610b39576040517f08c379a0000000000000000000000000000000000000000000000000000000008152600401610b3090612064565b60405180910390fd5b6001805f8373ffffffffffffffffffffffffffffffffffffffff1673ffffffffffffffffffffffffffffffffffffffff1681526020019081526020015f205f0160036101000a81548160ff02191690831515021790555050565b335f60015f8373ffffffffffffffffffffffffffffffffffffffff1673ffffffffffffffffffffffffffffffffffffffff1681526020019081526020015f206040518060e00160405290815f82015f9054906101000a900460ff161515151581526020015f820160019054906101000a900460ff161515151581526020015f820160029054906101000a900460ff161515151581526020015f820160039054906101000a900460ff161515151581526020015f820160049054906101000a900460ff1615151515815260200160018201548152602001600282015481525050905080604001518015610c86575080606001515b8015610c93575080608001515b610cd2576040517f08c379a0000000000000000000000000000000000000000000000000000000008152600401610cc9906123fd565b60405180910390fd5b60015f3373ffffffffffffffffffffffffffffffffffffffff1673ffffffffffffffffffffffffffffffffffffffff1681526020019081526020015f205f0160019054906101000a900460ff1615610d5f576040517f08c379a0000000000000000000000000000000000000000000000000000000008152600401610d5690612465565b60405180910390fd5b5f5b8351811015610dfb57600160025f3373ffffffffffffffffffffffffffffffffffffffff1673ffffffffffffffffffffffffffffffffffffffff1681526020019081526020015f205f868481518110610dbd57610dbc612483565b5b602002602001015181526020019081526020015f205f6101000a81548160ff0219169083151502179055508080610df3906124dd565b915050610d61565b506001805f3373ffffffffffffffffffffffffffffffffffffffff1673ffffffffffffffffffffffffffffffffffffffff1681526020019081526020015f205f0160016101000a81548160ff021916908315150217905550505050565b335f60015f8373ffffffffffffffffffffffffffffffffffffffff1673ffffffffffffffffffffffffffffffffffffffff1681526020019081526020015f206040518060e00160405290815f82015f9054906101000a900460ff161515151581526020015f820160019054906101000a900460ff161515151581526020015f820160029054906101000a900460ff161515151581526020015f820160039054906101000a900460ff161515151581526020015f820160049054906101000a900460ff1615151515815260200160018201548152602001600282015481525050905080604001518015610f4b575080606001515b8015610f58575080608001515b610f97576040517f08c379a0000000000000000000000000000000000000000000000000000000008152600401610f8e906123fd565b60405180910390fd5b60015f3373ffffffffffffffffffffffffffffffffffffffff1673ffffffffffffffffffffffffffffffffffffffff1681526020019081526020015f205f0160019054906101000a900460ff1615611024576040517f08c379a000000000000000000000000000000000000000000000000000000000815260040161101b90612465565b60405180910390fd5b8251845114611068576040517f08c379a000000000000000000000000000000000000000000000000000000000815260040161105f9061256e565b60405180910390fd5b5f5b845181101561118e57600a84828151811061108857611087612483565b5b60200260200101518583815181106110a3576110a2612483565b5b60200260200101516110b5919061258c565b11156110f6576040517f08c379a00000000000000000000000000000000000000000000000000000000081526004016110ed90612617565b60405180910390fd5b83818151811061110957611108612483565b5b602002602001015160035f3373ffffffffffffffffffffffffffffffffffffffff1673ffffffffffffffffffffffffffffffffffffffff1681526020019081526020015f205f87848151811061116257611161612483565b5b602002602001015181526020019081526020015f20819055508080611186906124dd565b91505061106a565b506001805f3373ffffffffffffffffffffffffffffffffffffffff1673ffffffffffffffffffffffffffffffffffffffff1681526020019081526020015f205f0160016101000a81548160ff02191690831515021790555050505050565b335f60015f8373ffffffffffffffffffffffffffffffffffffffff1673ffffffffffffffffffffffffffffffffffffffff1681526020019081526020015f206040518060e00160405290815f82015f9054906101000a900460ff161515151581526020015f820160019054906101000a900460ff161515151581526020015f820160029054906101000a900460ff161515151581526020015f820160039054906101000a900460ff161515151581526020015f820160049054906101000a900460ff16151515158152602001600182015481526020016002820154815250509050806040015180156112df575080606001515b80156112ec575080608001515b61132b576040517f08c379a0000000000000000000000000000000000000000000000000000000008152600401611322906123fd565b60405180910390fd5b60015f3373ffffffffffffffffffffffffffffffffffffffff1673ffffffffffffffffffffffffffffffffffffffff1681526020019081526020015f205f0160019054906101000a900460ff16156113b8576040517f08c379a00000000000000000000000000000000000000000000000000000000081526004016113af90612465565b60405180910390fd5b60405180602001604052808481525060045f3373ffffffffffffffffffffffffffffffffffffffff1673ffffffffffffffffffffffffffffffffffffffff1681526020019081526020015f205f820151815f01908051906020019061141e92919061179e565b509050506001805f3373ffffffffffffffffffffffffffffffffffffffff1673ffffffffffffffffffffffffffffffffffffffff1681526020019081526020015f205f0160016101000a81548160ff021916908315150217905550505050565b6001602052805f5260405f205f91509050805f015f9054906101000a900460ff1690805f0160019054906101000a900460ff1690805f0160029054906101000a900460ff1690805f0160039054906101000a900460ff1690805f0160049054906101000a900460ff16908060010154908060020154905087565b5f60025f8473ffffffffffffffffffffffffffffffffffffffff1673ffffffffffffffffffffffffffffffffffffffff1681526020019081526020015f205f8381526020019081526020015f205f9054906101000a900460ff16905092915050565b606060015f8373ffffffffffffffffffffffffffffffffffffffff1673ffffffffffffffffffffffffffffffffffffffff1681526020019081526020015f20600201546040516020016115ad9190612655565b6040516020818303038152906040529050919050565b5f8054906101000a900473ffffffffffffffffffffffffffffffffffffffff1673ffffffffffffffffffffffffffffffffffffffff163373ffffffffffffffffffffffffffffffffffffffff1614611650576040517f08c379a000000000000000000000000000000000000000000000000000000000815260040161164790612064565b60405180910390fd5b6005805490508110611697576040517f08c379a000000000000000000000000000000000000000000000000000000000815260040161168e906126b9565b60405180910390fd5b600160028111156116ab576116aa611b72565b5b600582815481106116bf576116be612483565b5b905f5260205f2090600302016002015f9054906101000a900460ff1660028111156116ed576116ec611b72565b5b1461172d576040517f08c379a000000000000000000000000000000000000000000000000000000000815260040161172490612721565b60405180910390fd5b60026005828154811061174357611742612483565b5b905f5260205f2090600302016002015f6101000a81548160ff0219169083600281111561177357611772611b72565b5b021790555050565b5f8054906101000a900473ffffffffffffffffffffffffffffffffffffffff1681565b828054828255905f5260205f209081019282156117d8579160200282015b828111156117d75782518255916020019190600101906117bc565b5b5090506117e591906117e9565b5090565b5b80821115611800575f815f9055506001016117ea565b5090565b5f604051905090565b5f80fd5b5f80fd5b5f73ffffffffffffffffffffffffffffffffffffffff82169050919050565b5f61183e82611815565b9050919050565b61184e81611834565b8114611858575f80fd5b50565b5f8135905061186981611845565b92915050565b5f602082840312156118845761188361180d565b5b5f6118918482850161185b565b91505092915050565b5f81519050919050565b5f82825260208201905092915050565b5f819050602082019050919050565b5f819050919050565b6118d5816118c3565b82525050565b5f6118e683836118cc565b60208301905092915050565b5f602082019050919050565b5f6119088261189a565b61191281856118a4565b935061191d836118b4565b805f5b8381101561194d57815161193488826118db565b975061193f836118f2565b925050600181019050611920565b5085935050505092915050565b5f6020820190508181035f83015261197281846118fe565b905092915050565b5f819050919050565b61198c8161197a565b8114611996575f80fd5b50565b5f813590506119a781611983565b92915050565b5f80604083850312156119c3576119c261180d565b5b5f6119d08582860161185b565b92505060206119e185828601611999565b9150509250929050565b5f8115159050919050565b6119ff816119eb565b82525050565b5f602082019050611a185f8301846119f6565b92915050565b611a27816118c3565b8114611a31575f80fd5b50565b5f81359050611a4281611a1e565b92915050565b5f8060408385031215611a5e57611a5d61180d565b5b5f611a6b8582860161185b565b9250506020611a7c85828601611a34565b9150509250929050565b611a8f816118c3565b82525050565b5f602082019050611aa85f830184611a86565b92915050565b5f60208284031215611ac357611ac261180d565b5b5f611ad084828501611a34565b91505092915050565b611ae281611834565b82525050565b5f81519050919050565b5f82825260208201905092915050565b5f5b83811015611b1f578082015181840152602081019050611b04565b5f8484015250505050565b5f601f19601f8301169050919050565b5f611b4482611ae8565b611b4e8185611af2565b9350611b5e818560208601611b02565b611b6781611b2a565b840191505092915050565b7f4e487b71000000000000000000000000000000000000000000000000000000005f52602160045260245ffd5b60038110611bb057611baf611b72565b5b50565b5f819050611bc082611b9f565b919050565b5f611bcf82611bb3565b9050919050565b611bdf81611bc5565b82525050565b5f606082019050611bf85f830186611ad9565b8181036020830152611c0a8185611b3a565b9050611c196040830184611bd6565b949350505050565b5f805f60608486031215611c3857611c3761180d565b5b5f611c458682870161185b565b9350506020611c5686828701611999565b9250506040611c6786828701611999565b9150509250925092565b5f80fd5b5f80fd5b7f4e487b71000000000000000000000000000000000000000000000000000000005f52604160045260245ffd5b611caf82611b2a565b810181811067ffffffffffffffff82111715611cce57611ccd611c79565b5b80604052505050565b5f611ce0611804565b9050611cec8282611ca6565b919050565b5f67ffffffffffffffff821115611d0b57611d0a611c79565b5b611d1482611b2a565b9050602081019050919050565b828183375f83830152505050565b5f611d41611d3c84611cf1565b611cd7565b905082815260208101848484011115611d5d57611d5c611c75565b5b611d68848285611d21565b509392505050565b5f82601f830112611d8457611d83611c71565b5b8135611d94848260208601611d2f565b91505092915050565b5f60208284031215611db257611db161180d565b5b5f82013567ffffffffffffffff811115611dcf57611dce611811565b5b611ddb84828501611d70565b91505092915050565b5f67ffffffffffffffff821115611dfe57611dfd611c79565b5b602082029050602081019050919050565b5f80fd5b5f611e25611e2084611de4565b611cd7565b90508083825260208201905060208402830185811115611e4857611e47611e0f565b5b835b81811015611e715780611e5d8882611a34565b845260208401935050602081019050611e4a565b5050509392505050565b5f82601f830112611e8f57611e8e611c71565b5b8135611e9f848260208601611e13565b91505092915050565b5f60208284031215611ebd57611ebc61180d565b5b5f82013567ffffffffffffffff811115611eda57611ed9611811565b5b611ee684828501611e7b565b91505092915050565b5f8060408385031215611f0557611f0461180d565b5b5f83013567ffffffffffffffff811115611f2257611f21611811565b5b611f2e85828601611e7b565b925050602083013567ffffffffffffffff811115611f4f57611f4e611811565b5b611f5b85828601611e7b565b9150509250929050565b611f6e8161197a565b82525050565b5f60e082019050611f875f83018a6119f6565b611f9460208301896119f6565b611fa160408301886119f6565b611fae60608301876119f6565b611fbb60808301866119f6565b611fc860a0830185611f65565b611fd560c0830184611f65565b98975050505050505050565b5f6020820190508181035f830152611ff98184611b3a565b905092915050565b5f6020820190506120145f830184611ad9565b92915050565b7f4f6e6c792061646d696e2063616e20726567697374657220766f7465727300005f82015250565b5f61204e601e83611af2565b91506120598261201a565b602082019050919050565b5f6020820190508181035f83015261207b81612042565b9050919050565b7f4e487b71000000000000000000000000000000000000000000000000000000005f52602260045260245ffd5b5f60028204905060018216806120c657607f821691505b6020821081036120d9576120d8612082565b5b50919050565b7f4e6f742061207265676973746572656420766f746572000000000000000000005f82015250565b5f612113601683611af2565b915061211e826120df565b602082019050919050565b5f6020820190508181035f83015261214081612107565b9050919050565b5f819050815f5260205f209050919050565b5f6020601f8301049050919050565b5f82821b905092915050565b5f600883026121a37fffffffffffffffffffffffffffffffffffffffffffffffffffffffffffffffff82612168565b6121ad8683612168565b95508019841693508086168417925050509392505050565b5f819050919050565b5f6121e86121e36121de846118c3565b6121c5565b6118c3565b9050919050565b5f819050919050565b612201836121ce565b61221561220d826121ef565b848454612174565b825550505050565b5f90565b61222961221d565b6122348184846121f8565b505050565b5b818110156122575761224c5f82612221565b60018101905061223a565b5050565b601f82111561229c5761226d81612147565b61227684612159565b81016020851015612285578190505b61229961229185612159565b830182612239565b50505b505050565b5f82821c905092915050565b5f6122bc5f19846008026122a1565b1980831691505092915050565b5f6122d483836122ad565b9150826002028217905092915050565b6122ed82611ae8565b67ffffffffffffffff81111561230657612305611c79565b5b61231082546120af565b61231b82828561225b565b5f60209050601f83116001811461234c575f841561233a578287015190505b61234485826122c9565b8655506123ab565b601f19841661235a86612147565b5f5b828110156123815784890151825560018201915060208501945060208101905061235c565b8683101561239e578489015161239a601f8916826122ad565b8355505b6001600288020188555050505b505050505050565b7f596f7520617265206e6f74207265676973746572656420746f20766f746500005f82015250565b5f6123e7601e83611af2565b91506123f2826123b3565b602082019050919050565b5f6020820190508181035f830152612414816123db565b9050919050565b7f596f75206861766520616c726561647920766f746564000000000000000000005f82015250565b5f61244f601683611af2565b915061245a8261241b565b602082019050919050565b5f6020820190508181035f83015261247c81612443565b9050919050565b7f4e487b71000000000000000000000000000000000000000000000000000000005f52603260045260245ffd5b7f4e487b71000000000000000000000000000000000000000000000000000000005f52601160045260245ffd5b5f6124e7826118c3565b91507fffffffffffffffffffffffffffffffffffffffffffffffffffffffffffffffff8203612519576125186124b0565b5b600182019050919050565b7f4d69736d61746368656420696e707574730000000000000000000000000000005f82015250565b5f612558601183611af2565b915061256382612524565b602082019050919050565b5f6020820190508181035f8301526125858161254c565b9050919050565b5f612596826118c3565b91506125a1836118c3565b92508282026125af816118c3565b915082820484148315176125c6576125c56124b0565b5b5092915050565b7f45786365656465642071756164726174696320627564676574000000000000005f82015250565b5f612601601983611af2565b915061260c826125cd565b602082019050919050565b5f6020820190508181035f83015261262e816125f5565b9050919050565b5f819050919050565b61264f61264a8261197a565b612635565b82525050565b5f612660828461263e565b60208201915081905092915050565b7f496e76616c6964206469737075746520696e64657800000000000000000000005f82015250565b5f6126a3601583611af2565b91506126ae8261266f565b602082019050919050565b5f6020820190508181035f8301526126d081612697565b9050919050565b7f44697370757465206973206e6f7420696e2061207261697365642073746174655f82015250565b5f61270b602083611af2565b9150612716826126d7565b602082019050919050565b5f6020820190508181035f830152612738816126ff565b905091905056fea26469706673582212203c97d6c5def00d66c86f8cc8e799107cc843c8de5211e6022335e7c8c2a4faf564736f6c63430008150033",
  "immutableReferences": {},
  "source": "// SPDX-License-Identifier: MIT\r\npragma solidity ^0.8.0;\r\n\r\ncontract SmartGovernanceVoting {\r\n    address public admin;\r\n\r\n    constructor() {\r\n        admin = msg.sender;\r\n    }\r\n\r\n    enum VoteType { Approval, Ranked, Quadratic }\r\n    enum DisputeStatus { None, Raised, Resolved }\r\n\r\n    struct Voter {\r\n        bool isRegistered;\r\n        bool hasVoted;\r\n        bool verifiedBiometric;\r\n        bool verifiedSMS;\r\n        bool verifiedHardware;\r\n        bytes32 ipHash;\r\n        bytes32 name; // Added name field\r\n    }\r\n\r\n    struct RankedVote {\r\n        uint[] rankedOptions;\r\n    }\r\n\r\n    struct Dispute {\r\n        address voter;\r\n        string reason;\r\n        DisputeStatus status;\r\n    }\r\n\r\n    mapping(address => Voter) public voters;\r\n    mapping(address => mapping(uint => bool)) private approvalVotes;\r\n    mapping(address => mapping(uint => uint)) private quadraticVotes;\r\n    mapping(address => RankedVote) private rankedVotes;\r\n\r\n    Dispute[] public disputes;\r\n\r\n    modifier onlyAdmin() {\r\n        require(msg.sender == admin, \"Only admin can register voters\");\r\n        _;\r\n    }\r\n\r\n    modifier onlyVerified(address _voter) {\r\n        Voter memory v = voters[_voter];\r\n        require(v.verifiedBiometric && v.verifiedSMS && v.verifiedHardware, \"You are not registered to vote\");\r\n        _;\r\n    }\r\n\r\n    function registerVoter(address _voter, bytes32 _ipHash, bytes32 _name) public onlyAdmin {\r\n        voters[_voter] = Voter(true, false, false, false, false, _ipHash, _name);\r\n    }\r\n\r\n    function verifyBiometric(address _voter) public onlyAdmin {\r\n        voters[_voter].verifiedBiometric = true;\r\n    }\r\n\r\n    function verifySMS(address _voter) public onlyAdmin {\r\n        voters[_voter].verifiedSMS = true;\r\n    }\r\n\r\n    function verifyHardwareToken(address _voter) public onlyAdmin {\r\n        voters[_voter].verifiedHardware = true;\r\n    }\r\n\r\n    function voteApproval(uint[] memory options) public onlyVerified(msg.sender) {\r\n        require(!voters[msg.sender].hasVoted, \"You have already voted\");\r\n        for (uint i = 0; i < options.length; i++) {\r\n            approvalVotes[msg.sender][options[i]] = true;\r\n        }\r\n        voters[msg.sender].hasVoted = true;\r\n    }\r\n\r\n    function voteRanked(uint[] memory rankedOptions) public onlyVerified(msg.sender) {\r\n        require(!voters[msg.sender].hasVoted, \"You have already voted\");\r\n        rankedVotes[msg.sender] = RankedVote(rankedOptions);\r\n        voters[msg.sender].hasVoted = true;\r\n    }\r\n\r\n    function voteQuadratic(uint[] memory options, uint[] memory weights) public onlyVerified(msg.sender) {\r\n        require(!voters[msg.sender].hasVoted, \"You have already voted\");\r\n        require(options.length == weights.length, \"Mismatched inputs\");\r\n\r\n        for (uint i = 0; i < options.length; i++) {\r\n            require(weights[i] * weights[i] <= 10, \"Exceeded quadratic budget\");\r\n            quadraticVotes[msg.sender][options[i]] = weights[i];\r\n        }\r\n        voters[msg.sender].hasVoted = true;\r\n    }\r\n\r\n    function getApprovalVote(address voter, uint option) public view returns (bool) {\r\n        return approvalVotes[voter][option];\r\n    }\r\n\r\n    function getQuadraticVote(address voter, uint option) public view returns (uint) {\r\n        return quadraticVotes[voter][option];\r\n    }\r\n\r\n    function getRankedVote(address voter) public view returns (uint[] memory) {\r\n        return rankedVotes[voter].rankedOptions;\r\n    }\r\n\r\n    function getVoterName(address voter) public view returns (string memory) {\r\n        return string(abi.encodePacked(voters[voter].name));\r\n    }\r\n\r\n    function raiseDispute(string memory reason) public {\r\n        require(voters[msg.sender].isRegistered, \"Not a registered voter\");\r\n        disputes.push(Dispute({\r\n            voter: msg.sender,\r\n            reason: reason,\r\n            status: DisputeStatus.Raised\r\n        }));\r\n    }\r\n\r\n    function resolveDispute(uint disputeIndex) public onlyAdmin {\r\n        require(disputeIndex < disputes.length, \"Invalid dispute index\");\r\n        require(disputes[disputeIndex].status == DisputeStatus.Raised, \"Dispute is not in a raised state\");\r\n        disputes[disputeIndex].status = DisputeStatus.Resolved;\r\n    }\r\n\r\n    function isAllowedGeoVote(address voter, bytes32 currentIPHash) public view returns (bool) {\r\n        return voters[voter].ipHash == currentIPHash;\r\n    }\r\n}\r\n",
  "sourcePath": "C:\\Users\\MANAN V ANDRASKAR\\Blockchain projects\\contracts\\SmartGovernanceVoting.sol",
  "compiler": {
    "name": "solc",
    "version": "0.8.21+commit.d9974bed.Emscripten.clang"
  },
  "schemaVersion": "3.4.16",
  "updatedAt": "2025-04-05T14:05:05.267Z",
  "networkType": "ethereum",
  "devdoc": {
    "kind": "dev",
    "methods": {},
    "version": 1
  },
  "userdoc": {
    "kind": "user",
    "methods": {},
    "version": 1
  }
}